:1000000045C0000060C000005EC000005CC0000091
:100010005AC0000058C0000056C0000054C0000084
:1000200052C0000050C000004EC000004CC0000094
:100030004AC00000BAC0000046C0000044C0000032
:1000400042C0000040C000003EC000003CC00000B4
:100050003AC0000038C0000036C0000034C00000C4
:1000600032C0000030C000002EC000002CC00000D4
:100070002AC0000028C0000026C0000024C00000E4
:1000800022C0000020C000001EC0000011241FBEBE
:10009000CFEFD0E4DEBFCDBF11E0A0E0B1E0E2EEF3
:1000A000F2E000E00BBF02C007900D92A630B1074E
:1000B000D9F721E0A6E0B1E001C01D92A631B20758
:1000C000E1F7C0D00CC19CCF20B120952F708130BA
:1000D000910551F01CF4892BA9F115C082309105CE
:1000E00041F0039759F00FC02430B1F0283091F55A
:1000F0001EC0243089F081E090E02CC02830B9F097
:1001000081E090E027C08FEF809301018FE780931B
:10011000000180E090E01EC0809100018F37A9F0BF
:10012000880F81608093000182E090E013C080918D
:1001300000018E3F69F0869580688093000183E01E
:1001400090E008C081E090E005C082E090E002C04D
:1001500083E090E02091010128B92091000125B9A8
:1001600008958BE0809381008DE790E09093890063
:100170008093880082E080936F0010928500109237
:1001800084008091020190910301A0910401B0913B
:1001900005018093110190931201A0931301B09374
:1001A00014018FB780688FBF08951F920F920FB60A
:1001B0000F9211248F939F93AF93BF93809111015E
:1001C00090911201A0911301B09114010197A1091E
:1001D000B1098093110190931201A0931301B09380
:1001E0001401892B8A2B8B2B99F481E080931501C4
:1001F0008091020190910301A0910401B091050149
:100200008093110190931201A0931301B0931401F4
:10021000BF91AF919F918F910F900FBE0F901F9044
:1002200018956093020170930301809304019093E9
:100230000501609311017093120180931301909353
:100240001401089511B88FEF82B987B918B884B92D
:1002500015B8E6E0F1E0808384E690E0A0E0B0E04D
:1002600081839283A383B48385839683A783B08796
:1002700084E690E09287818761E070E080E090E022
:10028000D0DF6FDFC6E0D1E04D815E816F81788580
:1002900089819A81AB81BC81481759076A077B071E
:1002A00061F48881E985FA85082E000C990B09957F
:1002B00088831D821E821F8218868D819E81AF8158
:1002C000B8850196A11DB11D8D839E83AF83B8872C
:1002D000809115018823E1F310921501D5CFF89490
:0202E000FFCF4E
:0602E200EFFF0100000027
:00000001FF
