:1000000045C0000060C000005EC000005CC0000091
:100010005AC0000058C0000056C0000054C0000084
:1000200052C0000050C000004EC000004CC0000094
:100030004AC000000BC1000046C0000044C00000E0
:1000400042C0000040C000003EC000003CC00000B4
:100050003AC0000038C0000036C0000034C00000C4
:1000600032C0000030C000002EC000002CC00000D4
:100070002AC0000028C0000026C0000024C00000E4
:1000800022C0000020C000001EC0000011241FBEBE
:10009000CFEFD0E4DEBFCDBF11E0A0E0B1E0E4E7F8
:1000A000F5E000E00BBF02C007900D92A831B10748
:1000B000D9F721E0A8E1B1E001C01D92A034B20758
:1000C000E1F752D155C29CCF20B1209523708130E9
:1000D000910551F01CF4892BE9F115C0823091058E
:1000E00041F0039759F00FC02130B1F02230D1F523
:1000F00022C0213089F081E090E008952230D9F0CB
:1001000081E090E008958FE78093070183E080937A
:100110003A0180E090E0089580913A01E82FF0E004
:10012000E85FFE4F9081903EC1F08F5F80933A016F
:1001300082E090E0089580913A01E82FF0E0E85FD6
:10014000FE4F9081973061F0815080933A0183E0B7
:1001500090E0089581E090E0089582E090E00895B5
:1001600083E090E0089520B120952C7081309105B6
:1001700051F01CF4892BE9F115C08230910541F052
:10018000039759F00FC02430B1F02830D1F522C0C8
:10019000243089F081E090E008952830D9F081E0A2
:1001A00090E008958EEF8093000183E08093390101
:1001B00080E090E0089580913901E82FF0E0EF5F52
:1001C000FE4F9081903EC1F08F5F8093390182E0B5
:1001D00090E0089580913901E82FF0E0EF5FFE4F45
:1001E0009081973061F081508093390183E090E0F5
:1001F000089581E090E0089582E090E0089583E022
:1002000090E008958BE0809381008DE790E09093DB
:1002100089008093880082E080936F0010928500AF
:100220001092840080910E0190910F01A091100115
:10023000B091110180933B0190933C01A0933D014B
:10024000B0933E018FB780688FBF08951F920F92C1
:100250000FB60F9211248F939F93AF93BF9380910A
:100260003B0190913C01A0913D01B0913E0101976D
:10027000A109B10980933B0190933C01A0933D01FA
:10028000B0933E01892B8A2B8B2B99F481E08093CC
:100290003F0180910E0190910F01A0911001B0914A
:1002A000110180933B0190933C01A0933D01B093D9
:1002B0003E01BF91AF919F918F910F900FBE0F9014
:1002C0001F90189560930E0170930F018093100199
:1002D0009093110160933B0170933C0180933D0129
:1002E00090933E01089520E030E058E0A82FB0E060
:1002F00070E055B958B945B1FD01022E02C0F5951F
:10030000E7950A94E2F79E2F9170942B95B948B126
:10031000FB01022E02C0F595E7950A94E2F79E2FA5
:100320009170942B98B9299A419A2F5F3F4F2830AA
:100330003105F9F62A9A429A15B818B80895E0914D
:100340003A01F0E0E85FFE4F608180910701CBDF6A
:10035000E0913901F0E0EF5FFE4F60818091000194
:10036000C2DF80E090E00895CF93DF9300D000D00B
:1003700000D0CDB7DEB711B88FEF82B984B915B808
:1003800087B918B80F2EF2E3DF2EF02DC12CB12C57
:10039000A12C52E040E030E020E004C0D62EC72E71
:1003A000B82EA92E652F742F832F922F2D2D3C2D23
:1003B0004B2D5A2DBBD05D2D4C2D3B2D2A2D61157B
:1003C00071058105910551F70F2EF2E3EF2EF02D07
:1003D000F12C00E010E004C0E62EF72E082F192FB4
:1003E0006D2D7C2D8B2D9A2D2E2D3F2D402F512F95
:1003F0009DD0DE2CCF2CB02EA12E6115710581056C
:10040000910551F762E070E080E090E02E2D3F2DE5
:10041000402F512F8BD049015A0162E370E080E0F8
:1004200090E02E2D3F2D402F512F80D086E0E2E12D
:10043000F1E0DE01119601900D928A95E1F7EEE26E
:10044000F1E08FEF808381829282A382B4828582E1
:100450009682A782B0866FE971E072876187E3E2D6
:10046000F1E0808321833283438354832583368361
:100470004783508764E670E072876187E8E1F1E0C6
:100480008083218332834383548325833683478348
:10049000508783EB90E0928781876E2D7F2D802F90
:1004A000912F10DFAFDE7E0187E0E80EF11CDE0148
:1004B00011966D01F601019111916F01D801159608
:1004C0004D915D916D917C91189711968D919D91B3
:1004D0000D90BC91A02D481759076A077B0781F43E
:1004E000F80180810184F285E02D082E000C990B23
:1004F0000995D8018C93F80115821682178210860F
:10050000F80185819681A781B0850196A11DB11D55
:1005100085839683A783B087CE14DF0459F6809134
:100520003F018823E1F310923F01C1CFA1E21A2ECF
:10053000AA1BBB1BFD010DC0AA1FBB1FEE1FFF1F87
:10054000A217B307E407F50720F0A21BB30BE40BD7
:10055000F50B661F771F881F991F1A9469F760951E
:100560007095809590959B01AC01BD01CF010895D8
:04057000F894FFCF2D
:10057400FE070E1C3870E07F070E1C3870E0010087
:0805840000002E012301180103
:00000001FF
