S00C00006D656E752E7372656363
S113000054C000006FC000006DC000006BC0000051
S113001069C0000067C0000065C0000063C0000044
S113002061C000005FC000005DC000005BC0000054
S113003059C000007CC0000055C0000053C000003F
S113004051C000004FC000004DC000004BC0000074
S113005049C0000047C0000045C0000043C0000084
S113006041C000003FC000003DC000003BC0000094
S113007039C0000037C0000035C0000033C00000A4
S113008031C000002FC000002DC0000048016001F5
S113009067013E0274017D01850110021002100205
S11300A08D01910197019B01A10111241FBECFEF86
S11300B0D0E4DEBFCDBF11E0A0E0B1E0ECEDF5E0AF
S11300C000E00BBF02C007900D92A03AB107D9F728
S11300D021E0A0EAB1E001C01D92A93BB207E1F71B
S11300E0DDD17AC28DCF8BE0809381008DE790E0E3
S11300F0909389008093880082E080936F0010922F
S11301008500109284008091000190910101A091DA
S11301100201B09103018093B4019093B501A093BF
S1130120B601B093B7018FB780688FBF08951F924F
S11301300F920FB60F9211248F939F93AF93BF9397
S11301408091B4019091B501A091B601B091B7012D
S11301500197A109B1098093B4019093B501A093CB
S1130160B601B093B701892B8A2B8B2B99F481E0CC
S11301708093B8018091000190910101A091020146
S1130180B09103018093B4019093B501A093B6019B
S1130190B093B701BF91AF919F918F910F900FBE14
S11301A00F901F9018956093000170930101809344
S11301B00201909303016093B4017093B50180939D
S11301C0B6019093B7010895181619065CF00895C6
S11301D0000021503109E1F74F5F5F4F8417950705
S11301E019F4089540E050E027E033E0F1CF169889
S11301F08BB9179A0000179882E090E0E5CF089534
S113020081E0F5CF0895813118F48158F0CF089535
S11302108155EDCF089584E690E0D6DF88E3E7DFEB
S113022086E0E5DF8FE0E3DF81E0E1DF8AE090E074
S1130230CBCF0895169A8BB9179A0000179881E0CE
S113024090E0C2CF08950F931F93CF93DF93182F9D
S1130250EB01D6DF8881882351F001E0010F812F63
S1130260D2DF8991E7DF102F88818111F6CFDF91EA
S1130270CF911F910F9108959C0190B19095907F1B
S11302802F30310508F060C0F901EA5BFF4F75C1FA
S1130290903141F481E08093B3011092B20121E0E6
S11302A030E0FAC0903241F41092B30181E08093BF
S11302B0B20121E030E0F0C0903409F045C0EAC05A
S11302C0903109F4E9C0903209F053C0E5C090318F
S11302D021F481E08093AF01D4C0903209F049C089
S11302E082E08093AF01CDC08091AE01811148C0FE
S11302F08091AD0181114DC0CFC08091AC0182309D
S113030009F450C024E030E0C7C08091AB018230D2
S113031009F467C024E030E0BFC0903409F089C01C
S1130320BBC0903409F485C02CE030E0B5C09034F3
S113033009F0B2C08EC0903409F48BC02EE030E0D6
S1130340ABC0903409F0A8C01092B3011092B2016E
S11303501092AC011092AB011092B0011092B10155
S11303601092AF0164E071E081E06DDF20E030E0E5
S113037093C063E271E081E066DF22E030E08CC08C
S113038084E141DF8091AC01805D54DF25E030E001
S113039083C08DE138DF8091AB01805D4BDF26E0C7
S11303A030E07AC01092B3011092B2011092B10100
S11303B062E471E081E047DF80E090E0E7D0BC01D7
S11303C06F5F7F4F80E090E0E6D083E090E0DED086
S11303D0BC016F5F7F4F83E090E0DDD027E030E029
S11303E05BC01092B3011092B2011092B10163E5A7
S11303F071E081E028DF80E090E0C8D0BC016F5F4D
S11304007F4F80E090E0C7D085E090E0BFD0BC0192
S11304106F5F7F4F85E090E0BED028E030E03CC0C5
S11304201092B3011092B2011092B10129E030E0B0
S113043033C081E0E8DE64E671E081E004DF8FE050
S1130440E2DE80E090E0A2D0805DF4DE2BE030E0DC
S113045023C064E771E081E0F6DE84E0D4DE83E06B
S113046090E094D0805DE6DE8DE0CDDE85E090E026
S11304708DD0805DDFDE2DE030E00EC024E030E082
S11304800BC081E08093B10161E871E0DCDE23E020
S113049030E002C02AE030E0C901089511B88FEFBE
S11304A082B984B915B887B918B88AB91BB8E0EA13
S11304B0F1E0808384E690E0A0E0B0E08183928361
S11304C0A383B48385839683A783B0878CE391E069
S11304D09287818764E670E080E090E064DE03DE6A
S11304E09ADE8EDE80E090E051D0019629F460E03F
S11304F070E080E090E04FD085E090E047D0019636
S113050029F460E070E085E090E045D083E090E07D
S11305103DD0019629F460E070E083E090E03BD0A8
S1130520C0EAD1E04D815E816F81788589819A81AD
S1130530AB81BC81481759076A077B0761F488813E
S1130540E985FA85082E000C990B099588831D828C
S11305501E821F8218868D819E81AF81B885019687
S1130560A11DB11D8D839E83AF83B8878091B8018F
S11305708823E1F31092B801D5CFEE0FFF1F0024BA
S1130580001C0BBE0790F691E02D0994A8E1B0E0A1
S113059042E050E005C012D0272F11C0DC01CB018E
S11305A0FC01F999FECF06C0F2BDE1BDF89A31967F
S11305B000B40D9241505040B8F70895262FF99990
S11305C0FECF1FBA92BD81BD20BD0FB6F894FA9A32
S10F05D0F99A0FBE01960895F894FFCF2D
S11305DC0100000020202020204D61696E20202085
S11305EC202031702920327029207265636F726467
S11305FC7329002020446966666963756C747920DC
S113060C20456173792920446966666963756C7445
S113061C29002020202050312057696E732020207F
S113062C2020002020202050322057696E73202077
S113063C20202000526F756E647320706C61796594
S113064C643A2000503129202020202020503229C7
S113065C00202020202053434F52452020202020CE
S113066C2050312920202020202050322920200005
S9030000FC
