S01B00006D6F685F6D61747269786C61625F70617274312E737265635B
S113000045C0000060C000005EC000005CC000008D
S11300105AC0000058C0000056C0000054C0000080
S113002052C0000050C000004EC000004CC0000090
S11300304AC00000B1C0000046C0000044C0000037
S113004042C0000040C000003EC000003CC00000B0
S11300503AC0000038C0000036C0000034C00000C0
S113006032C0000030C000002EC000002CC00000D0
S11300702AC0000028C0000026C0000024C00000E0
S113008022C0000020C000001EC0000011241FBEBA
S1130090CFEFD0E4DEBFCDBF11E0A0E0B1E0EAECE9
S11300A0F3E000E00BBF02C007900D92A630B10749
S11300B0D9F721E0A6E0B1E001C01D92A232B20757
S11300C0E1F7FBD080C19CCF20B120952370813013
S11300D0910551F01CF4892B91F115C082309105E2
S11300E041F0039759F00FC02130A9F0223079F57F
S11300F01CC0213081F081E090E008952230A9F005
S113010081E090E0089581E08093000110921C0149
S113011080E090E0089580910001803899F0880F84
S11301208093000182E090E0089580910001813085
S113013061F086958093000183E090E0089581E06A
S113014090E0089582E090E0089583E090E00895BF
S11301508BE0809381008DE790E0909389008093F9
S1130160880082E080936F001092850010928400D2
S11301708091010190910201A0910301B0910401C9
S113018080931D0190931E01A0931F01B093200141
S11301908FB780688FBF08951F920F920FB60F928A
S11301A011248F939F93AF93BF9380911D019091DE
S11301B01E01A0911F01B09120010197A109B1096D
S11301C080931D0190931E01A0931F01B093200101
S11301D0892B8A2B8B2B99F481E0809321018091C8
S11301E0010190910201A0910301B0910401809357
S11301F01D0190931E01A0931F01B0932001BF9194
S1130200AF919F918F910F900FBE0F901F901895F3
S113021060930101709302018093030190930401A0
S113022060931D0170931E0180931F019093200120
S1130230089520E030E058E0E82FF0E055B945B1EA
S1130240BF01022E02C0759567950A94E2F7962FB6
S11302509170942B95B9299A2F5F3F4F283031051F
S113026069F72A9A15B8089520E030E058E0E82F9D
S1130270F0E058B948B1BF01022E02C075956795E8
S11302800A94E2F7962F9170942B98B9419A2F5FB4
S11302903F4F2830310569F7429A18B80895CF9333
S11302A0C8E080911C01C5DF80910001DDDFC150F1
S11302B0C1F780E090E0CF910895CF93DF9300D011
S11302C000D0CDB7DEB711B88FEF82B987B918B8AF
S11302D084B915B8A1E1B1E0BA83A983E6E0F1E0FD
S11302E0FC83EB838C9341E050E060E070E0119676
S11302F04D935D936D937C93149715964D935D93F5
S11303006D937C9318972FE431E01A963C932E93C7
S11303101997808382E390E0A0E0B0E08183928328
S1130320A383B48385839683A783B08784E690E010
S11303309287818762E070E080E090E069DF08DF07
S11303407E0185E0E80EF11CDE0111966D01F601D7
S1130350019111916F01D80115964D915D916D91A7
S11303607C91189711968D919D910D90BC91A02D23
S1130370481759076A077B0780F0F80180810184D8
S1130380F285E02D082E000C990B0995D8018C9369
S1130390F8011582168217821086F80185819681EC
S11303A0A781B0850196A11DB11D85839683A7837E
S11303B0B087CE14DF0459F6809121018823E1F33C
S10D03C010922101C1CFF894FFCF81
S10903CA01010000000027
S9030000FC
