:1000000066C0000083C0000081C000007FC0000007
:100010007DC000007BC0000079C0000077C00000F8
:1000200075C0000073C0000071C000006FC0000008
:100030006DC0000012C7000069C0000067C000006A
:1000400065C0000063C0000061C000005FC0000028
:100050005DC000005BC0000059C0000057C0000038
:1000600055C0000053C0000051C000004FC0000048
:100070004DC000004BC0000049C0000047C0000058
:1000800045C0000043C0000041C00000DE07E60795
:1000900004080D085D0853081A0823082B08D10826
:1000A000D10833083B083F08450849084F085D0858
:1000B00006097108060906097808060981088A08F0
:1000C0009308B208D1080609DF080609EF081124D1
:1000D0001FBECFEFD0E4DEBFCDBF11E0A0E0B1E0A6
:1000E000ECEAF7E100E00BBF02C007900D92A63DDD
:1000F000B107D9F722E0A6EDB1E001C01D92AB3205
:10010000B207E1F70E94B80A0C94D40B79CF823081
:100110009105B1F02CF4009749F0019761F039C0D6
:100120008330910599F00497B1F033C0809121029A
:100130008111BFC52EC080912102811189C029C0C3
:1001400080911902823309F083C0BCC580912102DD
:100150008111B5C51EC080911B02482F50E09091BF
:10016000200220911A02929F9001112442175307F6
:1001700024F48F5F80931B02A2C510921B02809112
:100180001F02811131C080911E02882309F49AC593
:100190000DC010921F0210921E0210921B021092AC
:1001A00021021092190280E090E0089580911E02D1
:1001B000811134C083E0809304018093050185E0C0
:1001C00080932502109224028FEF9FEF90930101FC
:1001D0008093000110920301109202018AE0809343
:1001E0001A0281E090E0089595E09093040183E085
:1001F00080930501909325028093240281E090E092
:10020000909301018093000110920301109202016A
:100210008AE080931A0281E090E0089582E0809362
:10022000040183E08093050180932502109224024B
:100230008FEF9FEF909301018093000110920301D3
:10024000109202018AE080931A0281E090E0089502
:1002500010921F0210921E02809119028F5F8093EC
:10026000190282E090E00895873051F4319521958C
:100270003109309303012093020183E090E0089557
:10028000913009F066C2863009F049C0809125029C
:10029000853009F580911A02833080F021E030E04A
:1002A000309301012093000110920301109202018A
:1002B000815080931A0283E090E0089581E090E0FD
:1002C00090930101809300011092030110920201AA
:1002D00083E090E00895843009F0BEC480911A0252
:1002E000833080F021E030E0309301012093000161
:1002F0003093030120930201815080931A0283E01E
:1003000090E0089581E090E09093010180930001D6
:10031000909303018093020183E090E0089585307B
:1003200009F070C080912502853029F580911A026C
:10033000833090F021E030E0309301012093000100
:100340002FEF3FEF30930301209302018150809300
:100350001A0283E090E0089581E090E0909301011B
:10036000809300018FEF9FEF909303018093020130
:1003700083E090E00895843009F580911A0283307B
:1003800080F021E030E030930101209300011092D1
:10039000030110920201815080931A0283E090E0E1
:1003A000089581E090E09093010180930001109204
:1003B00003011092020183E090E00895833009F078
:1003C0004EC480911A02833080F021E030E03093F7
:1003D0000101209300013093030120930201815019
:1003E00080931A0283E090E0089581E090E090937A
:1003F000010180930001909303018093020183E047
:1004000090E00895843009F070C080912502843016
:1004100029F580911A02833090F021E030E030938A
:100420000101209300012FEF3FEF30930301209350
:100430000201815080931A0283E090E0089581E0E8
:1004400090E090930101809300018FEF9FEF9093D4
:1004500003018093020183E090E00895833009F561
:1004600080911A02833080F021E030E03093010166
:100470002093000110920301109202018150809399
:100480001A0283E090E0089581E090E090930101EA
:1004900080930001109203011092020183E090E02A
:1004A0000895823009F0DEC380911A02833080F013
:1004B00021E030E0309301012093000130930301EB
:1004C00020930201815080931A0283E090E0089506
:1004D00081E090E0909301018093000190930301EB
:1004E0008093020183E090E00895833009F070C0AA
:1004F00080912502833029F580911A02833090F093
:1005000021E030E030930101209300012FEF3FEF15
:100510003093030120930201815080931A0283E0FB
:1005200090E0089581E090E09093010180930001B4
:100530008FEF9FEF909303018093020183E090E09F
:100540000895823009F580911A02833080F021E00D
:1005500030E03093010120930001109203011092CA
:100560000201815080931A0283E090E0089581E0B7
:1005700090E090930101809300011092030110928A
:10058000020183E090E00895813009F06EC380910C
:100590001A02833080F021E030E030930101209393
:1005A00000013093030120930201815080931A02CD
:1005B00083E090E0089581E090E0909301018093C2
:1005C0000001909303018093020183E090E008957D
:1005D000823009F06FC080912502823029F5809128
:1005E0001A02833090F021E030E030930101209333
:1005F00000012FEF3FEF3093030120930201815060
:1006000080931A0283E090E0089581E090E0909357
:100610000101809300018FEF9FEF9093030180937E
:10062000020183E090E00895813009F580911A027B
:10063000833080F021E030E030930101209300010D
:100640001092030110920201815080931A0283E0FC
:1006500090E0089581E090E0909301018093000183
:10066000109203011092020183E090E0089581113D
:10067000FFC280911A02833080F021E030E0309395
:100680000101209300013093030120930201815066
:1006900080931A0283E090E0089581E090E09093C7
:1006A000010180930001909303018093020183E094
:1006B00090E00895813009F0DEC2809125028130FA
:1006C00029F580911A02833090F021E030E03093D8
:1006D0000101209300012FEF3FEF3093030120939E
:1006E0000201815080931A0283E090E0089581E036
:1006F00090E090930101809300018FEF9FEF909322
:1007000003018093020183E090E008958111B6C255
:1007100080911A02833080F021E030E030930101B3
:1007200020930001109203011092020181508093E6
:100730001A0283E090E0089581E090E09093010137
:1007400080930001109203011092020183E090E077
:100750000895963009F066C2863009F04DC0809148
:100760002402853009F580911A02833080F02FEF42
:100770003FEF30930101209300011092030110928A
:100780000201815080931A0283E090E008958FEF78
:100790009FEF90930101809300011092030110924A
:1007A000020183E090E00895843009F06AC28091EC
:1007B0001A02833090F02FEF3FEF30930101209326
:1007C000000121E030E030930301209302018150C9
:1007D00080931A0283E090E008958FEF9FEF90934B
:1007E00001018093000181E090E0909303018093E8
:1007F000020183E090E00895853009F070C0809197
:100800002402853009F580911A02833080F02FEFA1
:100810003FEF3093010120930001309303012093B7
:100820000201815080931A0283E090E008958FEFD7
:100830009FEF9093010180930001909303018093B7
:10084000020183E090E00895843009F580911A0256
:10085000833080F02FEF3FEF3093010120930001B0
:100860001092030110920201815080931A0283E0DA
:1008700090E008958FEF9FEF909301018093000126
:10088000109203011092020183E090E008958330FA
:1008900009F0FAC180911A02833090F02FEF3FEFF8
:1008A000309301012093000121E030E030930301F7
:1008B00020930201815080931A0283E090E0089512
:1008C0008FEF9FEF909301018093000181E090E012
:1008D000909303018093020183E090E008958430B7
:1008E00009F070C080912402843009F580911A02C9
:1008F000833080F02FEF3FEF309301012093000110
:100900003093030120930201815080931A0283E007
:1009100090E008958FEF9FEF909301018093000185
:10092000909303018093020183E090E00895833067
:1009300009F580911A02833080F02FEF3FEF30935A
:1009400001012093000110920301109202018150D5
:1009500080931A0283E090E008958FEF9FEF9093C9
:10096000010180930001109203011092020183E0C3
:1009700090E00895823009F08AC180911A02833094
:1009800090F02FEF3FEF309301012093000121E021
:1009900030E03093030120930201815080931A02CA
:1009A00083E090E008958FEF9FEF90930101809393
:1009B000000181E090E0909303018093020183E0C5
:1009C00090E00895833009F070C080912402833054
:1009D00009F580911A02833080F02FEF3FEF3093BA
:1009E0000101209300013093030120930201815003
:1009F00080931A0283E090E008958FEF9FEF909329
:100A0000010180930001909303018093020183E030
:100A100090E00895823009F580911A02833080F0C9
:100A20002FEF3FEF3093010120930001109203015B
:100A300010920201815080931A0283E090E00895A1
:100A40008FEF9FEF909301018093000110920301BB
:100A50001092020183E090E00895813009F01AC1FC
:100A600080911A02833090F02FEF3FEF3093010115
:100A70002093000121E030E0309303012093020134
:100A8000815080931A0283E090E008958FEF9FEFEA
:100A9000909301018093000181E090E09093030125
:100AA0008093020183E090E00895823009F06FC0E6
:100AB00080912402823009F580911A02833080F0FF
:100AC0002FEF3FEF3093010120930001309303019A
:100AD00020930201815080931A0283E090E00895F0
:100AE0008FEF9FEF9093010180930001909303019A
:100AF0008093020183E090E00895813009F58091B0
:100B00001A02833080F02FEF3FEF309301012093E2
:100B100000011092030110920201815080931A0289
:100B200083E090E008958FEF9FEF90930101809311
:100B30000001109203011092020183E090E00895F9
:100B40008111ABC080911A02833090F02FEF3FEFFC
:100B5000309301012093000121E030E03093030144
:100B600020930201815080931A0283E090E008955F
:100B70008FEF9FEF909301018093000181E090E05F
:100B8000909303018093020183E090E00895813007
:100B900009F086C080912402813009F580911A0203
:100BA000833080F02FEF3FEF30930101209300015D
:100BB0003093030120930201815080931A0283E055
:100BC00090E008958FEF9FEF9093010180930001D3
:100BD000909303018093020183E090E008958111D6
:100BE00062C080911A02833080F02FEF3FEF309384
:100BF0000101209300011092030110920201815023
:100C000080931A0283E090E008958FEF9FEF909316
:100C1000010180930001109203011092020183E010
:100C200090E0089591110BC081E080931E028091A5
:100C30001C028F5F80931C0283E090E00895973040
:100C4000A9F581E080931F0280911D028F5F809340
:100C50001D0283E090E0089583E090E0089583E032
:100C600090E0089583E090E0089583E090E0089597
:100C700083E090E0089583E090E0089583E090E0C1
:100C8000089583E090E0089583E090E0089583E084
:100C900090E0089583E090E0089583E090E0089567
:100CA00083E090E0089583E090E0089583E090E091
:100CB000089580911F02882309F478CA95CA84E0B8
:100CC00090E0089510921902909100018091040122
:100CD000980F9093040120910201309103018091BB
:100CE0000501820F809305018111BECABFCA20B1E0
:100CF00020952C708130910599F01CF4009739F003
:100D000032C08230910589F00397A1F02CC0209168
:100D10002102222399F12091220221112DC0089550
:100D2000243069F0283051F514C0243041F081E0BE
:100D300090E00895283069F081E090E00895809176
:100D40002402853098F48F5F8093240282E090E043
:100D5000089580912402882361F0815080932402B9
:100D600083E090E0089580E090E0089582E090E0D4
:100D7000089583E090E0089581E090E00895813047
:100D80009105C1F01CF4009721F03DC0049794F147
:100D90003AC0209121022223D9F12091230222235B
:100DA000B9F131E020E080912202811130E0832FFF
:100DB000922F089520912102222341F120912302B4
:100DC000222331F13091050120912402321750F095
:100DD0002317F0F4353088F42F5F2093240282E04B
:100DE00090E00895332361F021502093240283E0A2
:100DF00090E0089581E090E0089582E090E0089509
:100E000083E090E0089580E090E0089580E090E035
:100E100008958BE0809381008DE790E090938900A6
:100E20008093880082E080936F001092850010927A
:100E300084008091240190912501A0912601B09118
:100E400027018093260290932702A0932802B09353
:100E500029028FB780688FBF08951F920F920FB637
:100E60000F9211248F939F93AF93BF93809126028B
:100E700090912702A0912802B09129020197A1091F
:100E8000B1098093260290932702A0932802B09381
:100E90002902892B8A2B8B2B99F481E080932A02DB
:100EA0008091240190912501A0912601B091270104
:100EB0008093260290932702A0932802B0932902E0
:100EC000BF91AF919F918F910F900FBE0F901F9088
:100ED00018956093240170932501809326019093C7
:100EE0002701609326027093270280932802909333
:100EF00029020895181619065CF008950000215083
:100F00003109E1F74F5F5F4F8417950719F4089592
:100F100040E050E027E033E0F1CF46988BB9479AA4
:100F20000000479882E090E0E5CF089581E0F5CF9A
:100F30000895813118F48158F0CF08958155EDCF8F
:100F4000089584E690E0D6DF88E3E7DF86E0E5DF1A
:100F50008FE0E3DF81E0E1DF8AE090E0CBCF08952E
:100F6000469A8BB9479A0000479881E090E0C2CF3B
:100F700008950F931F93CF93DF93182FEB01D6DFC4
:100F80008881882351F001E0010F812FD2DF899100
:100F9000E7DF102F88818111F6CFDF91CF911F916C
:100FA0000F9108959C0190B19095907F213131056A
:100FB00008F083C0F901EA5BFF4FC7C341E080E05E
:100FC000903409F440E0242F382F6FC0903131F471
:100FD00081E0809323021092220283C0903231F488
:100FE0001092230281E0809322027BC0903409F4A6
:100FF0000BC1109223021092220210922002109232
:101000001D0210921C0202C1903109F46AC0903294
:1010100009F467C023E030E0F9C0903121F482E0A8
:101020008093200265C0903209F0F0C081E0809387
:1010300020025EC080911F02811163C080911E0258
:10104000811168C0E3C080911D02833009F46BC038
:1010500026E030E0DBC080911C02833009F482C0BE
:1010600026E030E0D3C080911802823309F099C0A5
:101070001092180222C0903409F0A1C0C7C0903469
:1010800009F49DC02EE030E0C1C0903409F0BEC02C
:10109000A6C0903409F4A3C020E130E0B7C090347A
:1010A00009F0B4C00AC026E030E02031310508F074
:1010B000ADC0F901E95AFF4F48C3109223021092C4
:1010C00022021092210210921D0210921C02109214
:1010D00020022CDF64E371E081E04BDF20E030E0B0
:1010E00095C065E571E081E044DF22E030E08EC02C
:1010F00081E08093210266E771E03BDF25E030E08C
:1011000085C084E116DF80911D02805D29DF27E024
:1011100030E07CC08FE10DDF80911C02805D20DF1C
:1011200028E030E073C01092230210922202109245
:10113000210267E971E081E01CDF80E090E00ED3DE
:10114000BC016F5F7F4F80E090E00DD383E090E0C3
:1011500005D3BC016F5F7F4F83E090E004D329E0AB
:1011600030E054C010922302109222021092210209
:1011700068EA71E081E0FDDE80E090E0EFD2BC0142
:101180006F5F7F4F80E090E0EED285E090E0E6D2A6
:10119000BC016F5F7F4F85E090E0E5D22AE030E050
:1011A00035C01092230210922202109221028091E7
:1011B00018028F5F809318022BE030E027C081E097
:1011C000B8DE69EB71E081E0D4DE8FE0B2DE80E072
:1011D00090E0C4D2805DC4DE2DE030E017C069EC41
:1011E00071E081E0C6DE84E0A4DE83E090E0B6D268
:1011F000805DB6DE8DE09DDE85E090E0AFD2805D63
:10120000AFDE2FE030E002C02CE030E0C9010895ED
:1012100020E030E058E0A82FB0E070E055B958B9B0
:1012200045B1FD01022E02C0F595E7950A94E2F75B
:101230009E2F9170942B95B948B1FB01022E02C0EC
:10124000F595E7950A94E2F79E2F9170942B98B943
:10125000299A419A2F5F3F4F28303105F9F62A9A93
:10126000429A15B818B8089580912102882309F48C
:1012700048C080912302882301F1E0912502F0E02B
:10128000E25EFE4F608180911D01C2DFE091240289
:10129000F0E0E95EFE4F608180911601B9DFA09118
:1012A0000501B0E0A25FBE4FE0910401F0E0EA5F0B
:1012B000FE4F6C918081ACDF43C080912202882375
:1012C00001F1E0912502F0E0E25EFE4F6081809145
:1012D0001D019EDFE0912402F0E0E95EFE4F608197
:1012E0008091160195DFA0910501B0E0A25FBE4F8D
:1012F000E0910401F0E0EA5FFE4F6C91808188DFAD
:101300001FC0E0912502F0E0E25EFE4F6081809117
:101310001D017EDFE0912402F0E0E95EFE4F608176
:101320008091160175DFA0910501B0E0A25FBE4F6C
:10133000E0910401F0E0EA5FFE4F6C91808168DF8C
:1013400080E090E00895EAE7F0E08081806E80839D
:101350000895CF93DF93EC01F6DF809178009091B0
:101360007900C230D10509F447C03CF4209709F454
:10137000B6C0C130D10559F0C4C0C430D10509F49C
:1013800067C00CF44DC0259709F473C0BAC09C0126
:10139000215C33402F33310530F440912502443035
:1013A00009F07FC0BAC08038910530F44091250221
:1013B000413009F08AC0B8C0AC01415852404F33A7
:1013C000514008F464C02F33310528F420912502E0
:1013D000243009F4C3C09C01215831092F3F310545
:1013E00008F469C08038910508F0BEC080912502DC
:1013F000813009F0B9C0B5C09C01215832402F336B
:10140000314008F444C0815C9340CF9708F07CC021
:1014100080912502843009F044C0C1E0D0E0A4C02E
:101420009C01215C33402F33310508F08EC0409180
:1014300025024430B1F582C02F33310508F067C072
:1014400080912502843009F489C0C1E0D0E08CC0CD
:101450009C01215831092F3F310568F180389105F1
:1014600008F058C080912502813079F5C1E0D0E0C4
:101470007BC09C01215831092F3F3105E0F08038B5
:10148000910580F5809125028130F9F46AC0809140
:101490002502853050F58F5F80932502C2E0D0E0B1
:1014A00063C080912502853018F58E5F80932502F8
:1014B000C3E0D0E059C0809125028823E1F081503B
:1014C00080932502C4E0D0E04FC08091250288239C
:1014D000A9F0825080932502C5E0D0E045C0C1E06C
:1014E000D0E042C0C1E0D0E03FC0C2E0D0E03CC0AC
:1014F000C3E0D0E039C0C4E0D0E036C0C5E0D0E001
:1015000033C0C0E0D0E030C0C1E0D0E02DC0C1E0C9
:10151000D0E02AC0C1E0D0E027C080389105A8F211
:101520004BCF80912502B7CFAC01415852404F3389
:101530005140B8F348CF80912502ADCF81589240F9
:101540008F33914008F078CFF6CF815892408F3397
:10155000914008F49CCFC1E0D0E006C08091250204
:101560009ACF80912502ABCFCE01DF91CF91089524
:10157000CF93DF93CDB7DEB72C970FB6F894DEBFCD
:101580000FBECDBF11B88FEF82B984B915B887B936
:1015900018B88AB91BB89CE0E8E2F1E0DE011196C8
:1015A00001900D929A95E1F7EDE0F2E0808344E638
:1015B00050E060E070E0418352836383748345832D
:1015C00056836783708722ED37E032872187E2E018
:1015D000F2E0808308EC10E020E030E00183128329
:1015E00023833483058316832783308729EA39E0F0
:1015F00032872187E7EFF1E0808304E110E020E00B
:1016000030E0018312832383348305831683278389
:10161000308727E830E032872187ECEEF1E08083E5
:1016200041835283638374834583568367837087C2
:1016300027E736E032872187E1EEF1E080834CE254
:1016400051E060E070E0418352836383748345839B
:101650005683678370872FEB36E032872187E6ED6C
:10166000F1E0808381E090E0A0E0B0E081839283AC
:10167000A383B48385839683A783B08784E399E0AB
:10168000928781875EDC61E070E080E090E021DCA1
:10169000C0DB80E090E062D0019629F460E070E069
:1016A00080E090E060D085E090E058D0019629F489
:1016B00060E070E085E090E056D083E090E04ED0AE
:1016C000019629F460E070E083E090E04CD06E0178
:1016D000EDE0CE0ED11CCE0101967C01D7010D911B
:1016E0001D917D01F8014581568167817085818159
:1016F0009281A381B481481759076A077B0779F45F
:1017000080810184F285E02D082E000C990B09954B
:10171000D8018C93F8011582168217821086F80181
:1017200085819681A781B0850196A11DB11D858314
:101730009683A783B087CE14DF0481F680912A02B6
:101740008823E1F310922A02C6CFEE0FFF1F002478
:10175000001C0BBE0790F691E02D0994A8E1B0E0C3
:1017600042E050E005C012D0272F11C0DC01CB01B0
:10177000FC01F999FECF06C0F2BDE1BDF89A3196A1
:1017800000B40D9241505040B8F70895262FF999B2
:10179000FECF1FBA92BD81BD20BD0FB6F894FA9A54
:0C17A000F99A0FBE01960895F894FFCF4F
:1017AC00FFFFFFFF06067FBFDFEFF7FBFDFE010229
:1017BC00040810204080FE070E1C3870E07F070ED6
:1017CC001C3870E0010000000D020202F701EC0170
:1017DC00E101D60120202020204D61696E202020BF
:1017EC002020202031702920327029207265636FEF
:1017FC007264732900202020446966666963756CE5
:10180C007479202020456173792920202020696E6D
:10181C0073616E652900202020202053434F5245D0
:10182C002020202020205031292020202020202062
:10183C0020503229202000202020205031205769B0
:10184C006E73202020202000202020205032205792
:10185C00696E73202020202000526F756E647320F7
:10186C00706C617965643A20005031292020202069
:06187C002020503229007B
:00000001FF
