:1000000045C0000060C000005EC000005CC0000091
:100010005AC0000058C0000056C0000054C0000084
:1000200052C0000050C000004EC000004CC0000094
:100030004AC00000ACC0000046C0000044C0000040
:1000400042C0000040C000003EC000003CC00000B4
:100050003AC0000038C0000036C0000034C00000C4
:1000600032C0000030C000002EC000002CC00000D4
:100070002AC0000028C0000026C0000024C00000E4
:1000800022C0000020C000001EC0000011241FBEBE
:10009000CFEFD0E4DEBFCDBF11E0A0E0B1E0EAECED
:1000A000F2E000E00BBF02C007900D92A430B10750
:1000B000D9F721E0A4E0B1E001C01D92AA30B20757
:1000C000E1F7ECD000C19CCF181619065CF008953A
:1000D000000021503109E1F74F5F5F4F841795070A
:1000E00019F4089540E050E027E033E0F1CF46985E
:1000F0008BB9479A0000479882E090E0E5CF0895D9
:1001000081E0F5CF0895813118F48158F0CF08953A
:100110008155EDCF089584E690E0D6DF88E3E7DFF0
:1001200086E0E5DF8FE0E3DF81E0E1DF8AE090E079
:10013000CBCF0895469A8BB9479A0000479881E043
:1001400090E0C2CF08958BE0809381008DE790E02E
:10015000909389008093880082E080936F001092D2
:100160008500109284008091000190910101A0917E
:100170000201B09103018093040190930501A093C3
:100180000601B09307018FB780688FBF08951F9253
:100190000F920FB60F9211248F939F93AF93BF933B
:1001A0008091040190910501A0910601B091070191
:1001B0000197A109B1098093040190930501A093CF
:1001C0000601B0930701892B8A2B8B2B99F481E0D0
:1001D000809308018091000190910101A09102019A
:1001E000B09103018093040190930501A09306014F
:1001F000B0930701BF91AF919F918F910F900FBE68
:100200000F901F90189560930001709301018093E7
:1002100002019093030160930401709305018093A0
:100220000601909307010895EAE7F0E08081806E6F
:100230008083089580910901882311F081112DC0D8
:10024000F3DF80917800909179008F3F910509F05C
:1002500028F481E058DF81E36DCF08959C0121509F
:1002600031402F3F310528F481E04DDF82E362CF3A
:1002700008959C01215032402F3F310528F481E040
:1002800042DF83E357CF0895815093408F3F91051C
:1002900020F481E038DF84E34DCF08958FEF8AB9F1
:1002A0001BB887B918B837DF2BDF61E070E080E05A
:1002B00090E0A9DF48DFBEDF809108018823E1F3E9
:0A02C00010920801F8CFF894FFCF68
:0402CA00010000002F
:00000001FF
