:1000000045C0000060C000005EC000005CC0000091
:100010005AC0000058C0000056C0000054C0000084
:1000200052C0000050C000004EC000004CC0000094
:100030004AC0000074C1000046C0000044C0000077
:1000400042C0000040C000003EC000003CC00000B4
:100050003AC0000038C0000036C0000034C00000C4
:1000600032C0000030C000002EC000002CC00000D4
:100070002AC0000028C0000026C0000024C00000E4
:1000800022C0000020C000001EC0000011241FBEBE
:10009000CFEFD0E4DEBFCDBF11E0A0E0B1E0EEEEE7
:1000A000F5E000E00BBF02C007900D92A431B1074C
:1000B000D9F721E0A4E1B1E001C01D92A433B20759
:1000C000E1F7A8D192C29CCF20B120952F70823049
:1000D0009105D9F03CF4009709F4D3C08130910523
:1000E00041F02AC084309105D9F0A4F00597F1F0D1
:1000F00023C0213059F1223009F45AC0243009F4C8
:1001000089C0283009F0E6C0A1C02130F9F081E0B3
:1001100090E00895223009F44BC081E090E008950A
:10012000243009F477C081E090E00895283009F484
:100130008DC081E090E0089510922D0110922C0165
:1001400082E080932E0180E090E0089510922D01CE
:1001500010922C0180910801803909F495C0803FEC
:1001600009F0A4C094C09C018081803939F4509377
:100170002C0140932D0182E090E00895803F39F4F6
:1001800050932C0140932D0182E090E00895880F58
:1001900080833196C9010196522F432F89309105F2
:1001A00011F730932D0120932C0182E090E0089507
:1001B00010922D0110922C0180910801893009F4D0
:1001C00069C08F3009F07CC068C09C018081893093
:1001D00039F450932C0140932D0183E090E0089571
:1001E0008F3039F450932C0140932D0183E090E03F
:1001F0000895869580833196C9010196522F432F29
:100200008930910511F730932D0120932C0183E063
:1002100090E0089590912E01992309F441C0E0E007
:10022000F1E028E031E08081880F816081932E1712
:100230003F07C9F728E030E030932D0120932C01CF
:10024000915090932E0184E090E0089590912E01BA
:10025000943048F5E0E0F1E028E031E080818695D7
:1002600080688193E217F307C9F728E030E0309304
:100270002D0120932C019F5F90932E0185E090E04B
:10028000089581E090E0089582E090E0089582E092
:1002900090E0089583E090E0089583E090E0089571
:1002A00084E090E0089585E090E00895880F8093C1
:1002B0000801E9E0F1E022E030E051E040E054CF15
:1002C000869580930801E9E0F1E022E030E051E01A
:1002D00040E07CCF08958BE0809381008DE790E033
:1002E000909389008093880082E080936F00109241
:1002F0008500109284008091100190911101A091CD
:100300001201B091130180932F0190933001A093BB
:100310003101B09332018FB780688FBF08951F926B
:100320000F920FB60F9211248F939F93AF93BF93A9
:1003300080912F0190913001A0913101B091320153
:100340000197A109B10980932F0190933001A093E7
:100350003101B0933201892B8A2B8B2B99F481E0E8
:10036000809333018091100190911101A0911201AD
:10037000B091130180932F0190933001A09331012C
:10038000B0933201BF91AF919F918F910F900FBEAB
:100390000F901F9018956093100170931101809336
:1003A00012019093130160932F0170933001809399
:1003B000310190933201089520E030E058E0E82FB9
:1003C000F0E055B945B1BF01022E02C075956795A1
:1003D0000A94E2F7962F9170942B95B9299A2F5F82
:1003E0003F4F2830310569F72A9A15B80895E091F2
:1003F0002A01F0912B01E050FF4F8081DDDFE09179
:100400002A01F0912B01E85FFE4F808188B980E0DE
:1004100090E00895CF93DF9300D000D0CDB7DEB742
:1004200011B88FEF82B984B915B887B918B80F2EF3
:10043000F4E6EF2EF02DF12C00E010E052E040E069
:1004400030E020E004C0E62EF72E082F192F652F8C
:10045000742F832F922F2E2D3F2D402F512FA3D05D
:100460005E2D4F2D302F212F6115710581059105CE
:1004700051F762E070E080E090E02E2D3F2D402F9C
:10048000512F91D049015A0164E670E080E090E07C
:100490002E2D3F2D402F512F86D0AFE1B1E0BA83F2
:1004A000A983E4E1F1E0FC83EB838FEF8C93119659
:1004B0008D929D92AD92BC92149715968D929D92BD
:1004C000AD92BC92189767EF71E01A967C936E9389
:1004D0001997808321833283438354832583368312
:1004E0004783508784E690E0928781876E2D7F2D29
:1004F000802F912F50DFEFDE7E0185E0E80EF11CAA
:1005000080912A0190912B01079729F410922B01D9
:1005100010922A0141C0DE0111966D01F601019190
:1005200011916F01D80115964D915D916D917C915E
:10053000189711968D919D910D90BC91A02D481703
:1005400059076A077B0781F4F80180810184F285ED
:10055000E02D082E000C990B0995D8018C93F80119
:100560001582168217821086F80185819681A781EF
:10057000B0850196A11DB11D85839683A783B087A1
:10058000CE14DF0459F680912A0190912B01019637
:1005900090932B0180932A01809133018823E1F30A
:1005A00010923301ADCFA1E21A2EAA1BBB1BFD0195
:1005B0000DC0AA1FBB1FEE1FFF1FA217B307E40742
:1005C000F50720F0A21BB30BE40BF50B661F771F9A
:1005D000881F991F1A9469F760957095809590957A
:0E05E0009B01AC01BD01CF010895F894FFCF3F
:1005EE007FBFDFEFF7FBFDFE00003C24243C000044
:0405FE0001000000F8
:00000001FF
