S01B00006D6F685F746B696D5F6C6162365F70617274322E73726563A5
S113000045C0000060C000005EC000005CC000008D
S11300105AC0000058C0000056C0000054C0000080
S113002052C0000050C000004EC000004CC0000090
S11300304AC000006DC0000046C0000044C000007B
S113004042C0000040C000003EC000003CC00000B0
S11300503AC0000038C0000036C0000034C00000C0
S113006032C0000030C000002EC000002CC00000D0
S11300702AC0000028C0000026C0000024C00000E0
S113008022C0000020C000001EC0000011241FBEBA
S1130090CFEFD0E4DEBFCDBF11E0A0E0B1E0E0EDF2
S11300A0F4E000E00BBF02C007900D92A032B1074C
S11300B0D9F721E0A0E2B1E001C01D92A932B20754
S11300C0E1F7E3D103C29CCF8BE0809381008DE7FD
S11300D090E0909389008093880082E080936F0081
S11300E01092850010928400809101019091020188
S11300F0A0910301B0910401809323019093240102
S1130100A0932501B09326018FB780688FBF08950F
S11301101F920F920FB60F9211248F939F93AF9358
S1130120BF938091230190912401A0912501B09166
S113013026010197A109B109809323019093240119
S1130140A0932501B0932601892B8A2B8B2B99F43C
S113015081E0809327018091010190910201A09197
S11301600301B09104018093230190932401A0938F
S11301702501B0932601BF91AF919F918F910F906C
S11301800FBE0F901F9018956093010170930201A8
S113019080930301909304016093230170932401DD
S11301A080932501909326010895181619065CF092
S11301B00895000021503109E1F74F5F5F4F841724
S11301C0950719F4089540E050E027E033E0F1CFBB
S11301D05E9888B95F9A00005F9882E090E0E5CF6E
S11301E0089581E0F5CF0895813118F48158F0CF56
S11301F008958155EDCF089584E690E0D6DF88E335
S1130200E7DF86E0E5DF8FE0E3DF81E0E1DF8AE03E
S113021090E0CBCF08955E9A88B95F9A00005F980A
S113022081E090E0C2CF08950F931F93CF93DF93A3
S1130230182FEB01D6DF8881882351F001E0010FEC
S1130240812FD2DF8991E7DF102F88818111F6CFCA
S1130250DF91CF911F910F910895809128018230F1
S113026009F479C030F4882359F0813009F436C098
S1130270C0C0833009F4ADC0843009F4B2C0B9C041
S113028080912101811100C181E0809328011092A5
S113029020018093220180910001893059F4A1DF6B
S11302A085E08093000181E09FDF80910001805D03
S11302B0B2DF9FC081110BC094DF85E08093000101
S11302C081E092DF80910001805DA5DF92C081E032
S11302D08BDF80910001805D9EDF8BC080912201C5
S11302E0843061F4809120018A3009F0BFC082E03B
S11302F0809328018093220180E0A0C09091210185
S1130300992309F47FC093E090932801823071F41B
S1130310809100018930C0F48F5F8093000181E0F7
S113032063DF80910001805D76DF63C0809100010E
S1130330882351F081508093000181E055DF809142
S11303400001805D68DF55C081E04EDF80910001CF
S1130350805D61DF4EC080912201813069F480911B
S113036020018A3009F08BC081E08093280182E06B
S11303708093220180E052C090912101992309F4D5
S113038051C093E090932801823071F48091000170
S11303908930C0F48F5F8093000181E025DF809174
S11303A00001805D38DF25C080910001882351F071
S11303B081508093000181E017DF80910001805D0E
S11303C02ADF17C081E010DF80910001805D23DF08
S11303D010C080912101811135C084E080932801EF
S11303E0089580912101882309F44EC010922801B8
S11303F00895809128018230A9F0833019F1813069
S113040009F042C0809120018A3041F48091220198
S1130410880F809322011092200108958F5F8093AA
S113042020010895809120018A3041F480912201B5
S11304308695809322011092200108958F5F809306
S11304402001089580910001893029F465E071E06C
S113045081E0EACE0895811117C06DE071E081E07A
S1130460E3CE089583E08093280160CF8091210139
S11304708111F8CFC7CF83E08093280195CF809175
S113048021018111F8CFCECF089511B88FEF82B931
S113049084B915B887B918B88AB91BB86EE170E089
S11304A080E090E071DE10DE10922801A5DE80B1BC
S11304B0809580932101D1DE809127018823E1F387
S11304C0109227018091220185B9F1CFF894FFCFD2
S11304D00501000000566963746F72790057414B3F
S11304E0452055502C2048454C4C4F3F3F3F000081
S9030000FC
