:1000000045C0000060C000005EC000005CC0000091
:100010005AC0000058C0000056C0000054C0000084
:1000200052C0000050C000004EC000004CC0000094
:100030004AC00000A9C0000046C0000044C0000043
:1000400042C0000040C000003EC000003CC00000B4
:100050003AC0000038C0000036C0000034C00000C4
:1000600032C0000030C000002EC000002CC00000D4
:100070002AC0000028C0000026C0000024C00000E4
:1000800022C0000020C000001EC0000011241FBEBE
:10009000CFEFD0E4DEBFCDBF11E0A0E0B1E0E8E5F6
:1000A000F3E000E00BBF02C007900D92A430B1074F
:1000B000D9F721E0A4E0B1E001C01D92AC30B20755
:1000C000E1F725D147C19CCF181619065CF00895B9
:1000D000000021503109E1F74F5F5F4F841795070A
:1000E00019F4089540E050E027E033E0F1CF5E9846
:1000F00088B95F9A00005F9882E090E0E5CF0895AC
:10010000813118F48158F3CF08958155F0CF0895C7
:1001100084E690E0D9DF88E3EADF86E0E8DF8FE07D
:10012000E6DF81E0E4DF8AE090E0CECF08955E9ADA
:1001300088B95F9A00005F9881E090E0C5CF08958C
:100140008BE0809381008DE790E09093890080930D
:10015000880082E080936F001092850010928400E6
:100160008091000190910101A0910201B0910301E1
:100170008093060190930701A0930801B0930901B1
:100180008FB780688FBF08951F920F920FB60F929E
:1001900011248F939F93AF93BF9380910601909109
:1001A0000701A0910801B09109010197A109B109C6
:1001B0008093060190930701A0930801B093090171
:1001C000892B8A2B8B2B99F481E080930A018091F3
:1001D000000190910101A0910201B091030180936F
:1001E000060190930701A0930801B0930901BF9104
:1001F000AF919F918F910F900FBE0F901F90189508
:1002000060930001709301018093020190930301B8
:100210006093060170930701809308019093090190
:10022000089580910B01823041F128F4882349F030
:10023000813071F054C08330A9F1843009F446C094
:100240004EC087E08093050181E080930B01089503
:1002500080910401813021F482E080930B0152C02F
:10026000823021F483E080930B0144C0833009F095
:100270004DC084E080930B0142C080910401813025
:1002800009F440C0823021F483E080930B0132C036
:10029000833021F484E080930B0131C081E08093AE
:1002A0000B01089580910401823021F1813021F405
:1002B00082E080930B0126C0833021F484E0809398
:1002C0000B011DC081E080930B0108958091040112
:1002D0008D7F8130A1F081E080930B010895109211
:1002E0000B0108958F5F80930501089581508093DD
:1002F0000501089580910501882341F0F7CF109200
:100300000501089580910501893061F7089511B8BC
:100310008FEF82B987B918B88AB91BB868EE73E055
:1003200080E090E06DDF0CDF10920B01F1DE80B118
:10033000809583708093040174DF81E0E1DE809119
:100340000501805DF4DE80910A018823E1F31092BB
:080350000A01EDCFF894FFCF84
:0403580001000000A0
:00000001FF
