:1000000045C0000060C000005EC000005CC0000091
:100010005AC0000058C0000056C0000054C0000084
:1000200052C0000050C000004EC000004CC0000094
:100030004AC000006DC0000046C0000044C000007F
:1000400042C0000040C000003EC000003CC00000B4
:100050003AC0000038C0000036C0000034C00000C4
:1000600032C0000030C000002EC000002CC00000D4
:100070002AC0000028C0000026C0000024C00000E4
:1000800022C0000020C000001EC0000011241FBEBE
:10009000CFEFD0E4DEBFCDBF11E0A0E0B1E0EEE1F4
:1000A000F3E000E00BBF02C007900D92A630B1074D
:1000B000D9F721E0A6E0B1E001C01D92A631B20758
:1000C000E1F7E0D02AC19CCF8BE0809381008DE7DF
:1000D00090E0909389008093880082E080936F0085
:1000E000109285001092840080910101909102018C
:1000F000A0910301B091040180931101909312012A
:10010000A0931301B09314018FB780688FBF089537
:100110001F920F920FB60F9211248F939F93AF935C
:10012000BF938091110190911201A0911301B091A0
:1001300014010197A109B109809311019093120153
:10014000A0931301B0931401892B8A2B8B2B99F464
:1001500081E0809315018091010190910201A091AD
:100160000301B09104018093110190931201A093B7
:100170001301B0931401BF91AF919F918F910F9094
:100180000FBE0F901F9018956093010170930201AC
:100190008093030190930401609311017093120105
:1001A0008093130190931401089520E030E058E00B
:1001B000E82FF0E055B945B1BF01022E02C0759598
:1001C00067950A94E2F7962F9170942B95B9299A26
:1001D0002F5F3F4F2830310569F72A9A15B80895E7
:1001E000CF93DF93EC0180B180958370C130D1054E
:1001F00059F01CF42097B9F116C0C230D10549F06E
:10020000C330D10559F00FC08130C1F0823099F56B
:1002100020C0813099F0C1E0D0E02DC08230C9F01B
:10022000C1E0D0E028C0C230D10541F0C330D105D3
:1002300081F0209701F5109200011DC0809100010E
:100240008F3FA1F0880F816080930001C2E0D0E071
:1002500012C080910001882361F08695809300018F
:10026000C3E0D0E008C0C1E0D0E005C0C2E0D0E00B
:1002700002C0C3E0D0E08091000197DFCE01DF91A2
:10028000CF91089511B88FEF82B984B915B8E6E01F
:10029000F1E010828AE090E0A0E0B0E081839283F8
:1002A000A383B48385839683A783B08780EF90E090
:1002B000928781876AE070E080E090E065DF04DF8C
:1002C000C6E0D1E04D815E816F81788589819A8118
:1002D000AB81BC81481759076A077B0761F48881A5
:1002E000E985FA85082E000C990B099588831D82F3
:1002F0001E821F8218868D819E81AF81B8850196EE
:10030000A11DB11D8D839E83AF83B8878091150198
:0E0310008823E1F310921501D5CFF894FFCFAA
:06031E000F0100000000C9
:00000001FF
