S01B00006D6F685F746B696D5F6C6162375F70617274352E73726563A1
S11300004DC0000068C0000066C0000064C000006D
S113001062C0000060C000005EC000005CC0000060
S11300205AC0000058C0000056C0000054C0000070
S113003052C0000075C000004EC000004CC000005B
S11300404AC0000048C0000046C0000044C0000090
S113005042C0000040C000003EC000003CC00000A0
S11300603AC0000038C0000036C0000034C00000B0
S113007032C0000030C000002EC000002CC00000C0
S11300802AC0000028C0000026C00000E900F000DB
S113009005010D01110119011D01250111241FBEC6
S11300A0CFEFD0E4DEBFCDBF11E0A0E0B1E0E0EEE1
S11300B0F5E000E00BBF02C007900D92A830B10735
S11300C0D9F721E0A8E0B1E001C01D92A831B20740
S11300D0E1F7B3D183C294CF8BE0809381008DE7A5
S11300E090E0909389008093880082E080936F0071
S11300F01092850010928400809104019091050172
S1130100A0910601B091070180930E0190930F0115
S1130110A0931001B09311018FB780688FBF089529
S11301201F920F920FB60F9211248F939F93AF9348
S1130130BF9380910E0190910F01A0911001B09195
S113014011010197A109B10980930E0190930F0148
S1130150A0931001B0931101892B8A2B8B2B99F456
S113016081E0809312018091040190910501A09196
S11301700601B091070180930E0190930F01A093A3
S11301801001B0931101BF91AF919F918F910F9086
S11301900FBE0F901F901895609304017093050192
S11301A0809306019093070160930E0170930F01F1
S11301B08093100190931101089520911401822FCE
S11301C090E08830910508F044C0FC01EA5BFF4FE1
S11301D0FCC187E080930D0181E0809314010895B0
S11301E080910C01813021F482E080931401089500
S11301F0823021F484E0809314010895833009F05F
S113020040C086E080931401089580910C018130F0
S1130210C1F183E08093140122C081E08093140132
S1130220089580910C01823061F185E0809314017E
S11302301EC081E080931401089580910C018330E5
S113024001F187E0809314011AC081E080931401C6
S11302500895253061F0273091F0233091F4809196
S11302600D01893071F08F5F80930D0108958091A5
S11302700D01882331F0815080930D01089510926F
S11302800D01089580911601823031F128F48823FC
S113029041F0813069F038C0833031F1843061F14C
S11302A033C087E080930D0181E0809316010895A7
S11302B080910C01813021F482E08093160132C0D8
S11302C0823021F483E08093160131C0833099F5A4
S11302D084E08093160123C080910C01813011F1D8
S11302E081E080931601089580910C018230F9F029
S11302F081E080931601089580910C0181110FC053
S113030081E08093160108951092160108958F5F7D
S113031080930D010895815080930D0108951092EA
S11303200D01089580910D01893089F70895809118
S11303300D018111F0CF089580911301882319F0E4
S1130340813041F00EC080910C01813079F48093AA
S1130350130121C080910C018130E9F01092130146
S113036005C0882319F0813011F515C088EE93E09B
S1130370A0E0B0E08093000190930101A0930201FA
S1130380B0930301109208011092090110920A011E
S113039010920B01089580E991E0A0E0B0E0809311
S11303A0000190930101A0930201B0930301089509
S11303B080911501882319F0813049F00FC0809194
S11303C00C01823081F481E08093150121C0809179
S11303D00C018230E9F01092150105C0882319F050
S11303E0813011F515C088EE93E0A0E0B0E0809371
S11303F0000190930101A0930201B09303011092B4
S113040008011092090110920A0110920B0108953B
S113041080E991E0A0E0B0E08093000190930101B5
S1130420A0930201B09303010895809117018111F3
S113043003C080910D0185B9089511B88FEF82B979
S113044084B915B86AE070E080E090E0A5DE44DE8F
S113045010921601109214011092170110921501B6
S113046010921301109208011092090110920A01CE
S113047010920B01C12CD12C76010F2EF8EE8F2E89
S1130480F3E09F2EA12CB12CF02D80B180958370C8
S113049080930C0192DE80910C01813029F008F4E4
S11304A077C08230D9F184C080910001909101011C
S11304B0A0910201B0910301C816D906EA06FB0611
S11304C008F476C08091080190910901A0910A0175
S11304D0B0910B0180399140A105B105C8F4D2DE79
S11304E08091080190910901A0910A01B0910B013A
S11304F08C599F4FAF4FBF4F8093080190930901D0
S1130500A0930A01B0930B01C12CD12C760150C0E9
S113051013DFB8DEC12CD12C76014AC080910001D2
S113052090910101A0910201B0910301C816D9066E
S1130530EA06FB0608F43CC0809108019091090189
S1130540A0910A01B0910B0180399140A105B10538
S1130550C8F498DE8091080190910901A0910A01E4
S1130560B0910B018C599F4FAF4FBF4F809308013F
S113057090930901A0930A01B0930B01C12CD12CD3
S1130580760116C015DF7EDEC12CD12C760110C099
S1130590109208011092090110920A0110920B01A5
S11305A08092000190920101A0920201B092030195
S11305B03CDF809112018823E1F3109212018AE05A
S11305C0C80ED11CE11CF11C60CFEE0FFF1F0024EC
S11305D0001C0BBE0790F691E02D0994F894FFCF10
S10B05E0E80300000100000023
S9030000FC
