:100000004DC0000068C0000066C0000064C0000071
:1000100062C0000060C000005EC000005CC0000064
:100020005AC0000058C0000056C0000054C0000074
:1000300052C0000075C000004EC000004CC000005F
:100040004AC0000048C0000046C0000044C0000094
:1000500042C0000040C000003EC000003CC00000A4
:100060003AC0000038C0000036C0000034C00000B4
:1000700032C0000030C000002EC000002CC00000C4
:100080002AC0000028C0000026C00000E900F000DF
:1000900005010D01110119011D01250111241FBECA
:1000A000CFEFD0E4DEBFCDBF11E0A0E0B1E0E4E1EE
:1000B000F4E000E00BBF02C007900D92A830B1073A
:1000C000D9F721E0A8E0B1E001C01D92A531B20747
:1000D000E1F73AD19DC194CF8BE0809381008DE709
:1000E00090E0909389008093880082E080936F0075
:1000F0001092850010928400809104019091050176
:10010000A0910601B091070180930B0190930C011F
:10011000A0930D01B0930E018FB780688FBF089533
:100120001F920F920FB60F9211248F939F93AF934C
:10013000BF9380910B0190910C01A0910D01B091A2
:100140000E010197A109B10980930B0190930C0155
:10015000A0930D01B0930E01892B8A2B8B2B99F460
:1001600081E080930F018091040190910501A0919D
:100170000601B091070180930B0190930C01A093AD
:100180000D01B0930E01BF91AF919F918F910F9090
:100190000FBE0F901F901895609304017093050196
:1001A000809306019093070160930B0170930C01FB
:1001B00080930D0190930E01089520911101822FDB
:1001C00090E08830910508F044C0FC01EA5BFF4FE5
:1001D00016C187E080930A0181E0809311010895A0
:1001E00080910901813021F482E08093110108950A
:1001F000823021F484E0809311010895833009F066
:1002000040C086E0809311010895809109018130FA
:10021000C1F183E08093110122C081E0809311013C
:10022000089580910901823061F185E08093110188
:100230001EC081E0809311010895809109018330EF
:1002400001F187E0809311011AC081E080931101D0
:100250000895253061F0273091F0233091F480919A
:100260000A01893071F08F5F80930A0108958091AF
:100270000A01882331F0815080930A010895109279
:100280000A01089580911301823031F128F4882306
:1002900041F0813069F038C0833031F1843061F150
:1002A00033C087E080930A0181E0809313010895B1
:1002B00080910901813021F482E08093130132C0E2
:1002C000823021F483E08093130131C0833099F5AB
:1002D00084E08093130123C080910901813011F1E2
:1002E00081E0809313010895809109018230F9F033
:1002F00081E08093130108958091090181110FC05D
:1003000081E08093130108951092130108958F5F87
:1003100080930A010895815080930A0108951092F4
:100320000A01089580910A01893089F70895809122
:100330000A018111F0CF089580911401811103C049
:1003400080910A0185B9089511B88FEF82B984B9F7
:1003500015B86AE070E080E090E01EDFBDDE10922C
:1003600013011092110110921401109212011092B7
:10037000100110920801C12CD12C760180B180951A
:1003800083708093090119DF80910901813019F090
:10039000823091F027C088EEC81683E0D806E104C9
:1003A000F10400F16FDF809108018851809308010A
:1003B000C12CD12C760116C08091000190910101D1
:1003C000A0910201B0910301C816D906EA06FB0606
:1003D00048F058DF809108018F5F80930801C12C9D
:1003E000D12C7601A9DF80910F018823E1F31092CF
:1003F0000F018AE0C80ED11CE11CF11CBFCFEE0F2B
:10040000FF1F0024001C0BBE0790F691E02D0994FD
:04041000F894FFCF8E
:08041400E803000001000000F4
:00000001FF
