S01C00006D6F685F746B696D5F6C616231305F70617274312E737265637A
S1130000ACC00000C7C00000C5C00000C3C00000F1
S1130010C1C00000BFC00000BDC00000BBC00000E4
S1130020B9C00000B7C00000B5C00000B3C00000F4
S1130030B1C0000074C10000ADC00000ABC000003E
S1130040A9C00000A7C00000A5C00000A3C0000014
S1130050A1C000009FC000009DC000009BC0000024
S113006099C0000097C0000095C0000093C0000034
S113007091C000008FC000008DC000008BC0000044
S113008089C0000087C0000085C000005F016401D2
S11300906401640164016401640155016401640143
S11300A06401640164015A01140119011E01230150
S11300B028012D01320137013C016401640164010E
S11300C06401640164016401410146014B01500172
S11300D0DC0204030403040304030403040304030D
S11300E004030403040304030403040304030403D4
S11300F004030403040304030403040304030403C4
S113010004030403040304030403040304030403B3
S113011004030403040302030403040304030403A5
S113012004030403FE02040304030403040304039A
S11301300003DF02E202E502E802EB02EE02F00253
S1130140F202F40204030403040304030403040397
S11301500403F602F802FA02FC0211241FBECFEFD8
S1130160D0E4DEBFCDBF11E0A0E0B1E0E6EEF6E002
S113017000E00BBF02C007900D92A430B107D9F77D
S113018021E0A4E0B1E001C01D92A032B207E1F782
S113019066D1A7C235CF181619065CF00895000081
S11301A021503109E1F74F5F5F4F8417950719F428
S11301B0089540E050E027E033E0F1CF10988BB988
S11301C0119A0000119882E090E0E5CF0895813102
S11301D018F48158F3CF08958155F0CF089584E63B
S11301E090E0D9DF88E3EADF86E0E8DF8FE0E6DF4E
S11301F081E0E4DF8AE090E0CECF0895109A8BB9D5
S1130200119A0000119881E090E0C5CF0895E09123
S11302101A018E2F90E0FC01B397E232F10508F049
S113022053C0EA5BFF4F54C281E3E8DF81E0CFDFD4
S11302304FC082E3E3DF81E0CADF4AC083E3DEDF4D
S113024081E0C5DF45C084E3D9DF81E0C0DF40C081
S113025085E3D4DF81E0BBDF3BC086E3CFDF81E011
S1130260B6DF36C087E3CADF81E0B1DF31C088E39F
S1130270C5DF81E0ACDF2CC089E3C0DF81E0A7DF0C
S113028027C081E4BBDF81E0A2DF22C082E4B6DFC5
S113029081E09DDF1DC083E4B1DF81E098DF18C0F9
S11302A084E4ACDF81E093DF13C08AE2A7DF81E05E
S11302B08EDF0EC080E3A2DF81E089DF09C083E224
S11302C09DDF81E084DF04C080E398DF81E07FDF8D
S11302D080E090E008958BE0809381008DE790E0CA
S11302E0909389008093880082E080936F0010923D
S11302F08500109284008091000190910101A091E9
S11303000201B091030180931B0190931C01A093FF
S11303101D01B0931E018FB780688FBF08951F928F
S11303200F920FB60F9211248F939F93AF93BF93A5
S113033080911B0190911C01A0911D01B0911E019F
S11303400197A109B10980931B0190931C01A0930B
S11303501D01B0931E01892B8A2B8B2B99F481E00C
S113036080931F018091000190910101A0910201ED
S1130370B091030180931B0190931C01A0931D0174
S1130380B0931E01BF91AF919F918F910F900FBEBB
S11303900F901F9018956093000170930101809352
S11303A002019093030160931B0170931C018093DD
S11303B01D0190931E0108958FEE88B90000309BB3
S11303C029C0319B29C0329B29C0339B29C08FEDA2
S11303D088B90000309B26C0319B26C0329B26C0C2
S11303E0339B26C08FEB88B90000309B23C0319B20
S11303F023C0329B23C0339B23C08FE788B90000FE
S1130400309B20C0319B20C0329B20C0339B20C036
S113041080E0089581E3089584E3089587E30895CF
S11304208AE2089582E3089585E3089588E30895B0
S113043080E3089583E3089586E3089589E30895A6
S113044083E2089581E4089582E4089583E408959D
S113045084E40895B1DF80931A0190E00895CF9366
S1130460DF9300D000D0CDB7DEB78FEF81B912B8DB
S113047084B915B88AB91BB880EF87B98FE088B9F9
S1130480AEDE0F2EF2E3EF2EF02DF12C00E010E0A3
S11304905AE040E030E020E004C0E62EF72E082FBA
S11304A0192F652F742F832F922F2E2D3F2D402F20
S11304B0512FECD05E2D4F2D302F212F611571055A
S11304C08105910551F76AE070E080E090E02E2DFF
S11304D03F2D402F512FDAD049015A0162E370E0D9
S11304E080E090E02E2D3F2D402F512FCFD0AFE054
S11304F0B1E0BA83A983E4E0F1E0FC83EB838FEFFE
S11305008C9311968D929D92AD92BC9214971596F0
S11305108D929D92AD92BC9218976AE272E01A96FF
S11305207C936E931997808321833283438354830E
S1130530258336834783508787E091E092878187BC
S11305406E2D7F2D802F912F26DFC5DE0F2EFFE02D
S11305502F2EF02D0F2EFEE03F2EF02D0F2EFDE05E
S11305604F2EF02D0F2EFCE05F2EF02D0F2EFBE012
S11305706F2EF02D0F2EFAE07F2EF02D0F2EF9E0C6
S11305808F2EF02D6894992493F80F2EF7E0AF2E58
S1130590F02D0F2EF6E0BF2EF02D6E0185E0C80E73
S11305A0D11C0ADF80931A0190E08534910560F52F
S11305B0FC01E859FF4F8CC08FE185B963C081E02D
S11305C085B960C082E085B95DC083E085B95AC051
S11305D094E095B957C0A5E0A5B954C0B5B852C0C8
S11305E0A5B850C095B84EC085B84CC075B84AC0BF
S11305F065B848C055B846C045B844C035B842C0CF
S113060015B840C025B83EC015B83CC0F7010191EB
S113061011917F01D80115964D915D916D917C9159
S1130620189711968D919D910D90BC91A02D48170E
S113063059076A077B0781F4F80180810184F285F8
S1130640E02D082E000C990B0995D8018C93F80124
S11306501582168217821086F80185819681A781FA
S1130660B0850196A11DB11D85839683A783B087AC
S1130670EC14FD0459F680911F018823E1F31092D4
S11306801F018FCFCE0101967C01C0CFA1E21A2EAB
S1130690AA1BBB1BFD010DC0AA1FBB1FEE1FFF1F22
S11306A0A217B307E407F50720F0A21BB30BE40B72
S11306B0F50B661F771F881F991F1A9469F76095B9
S11306C07095809590959B01AC01BD01CF01089573
S11306D0EE0FFF1F0024001C0BBE0790F691E02DC7
S10906E00994F894FFCF19
S10706E6010000000B
S9030000FC
